:020000040800F2
:1000000000500020C93000081D20000821200008F1
:1000100025200008292000082D20000800000000ED
:100020000000000000000000000000003120000877
:100030003520000800000000392000083D2000089D
:100040001131000811310008113100081131000888
:100050001131000811310008113100081131000878
:100060001131000811310008113100081131000868
:100070001131000811310008113100081131000858
:100080001131000811310008113100081131000848
:100090001131000811310008113100084120000819
:1000A0001131000811310008113100081131000828
:1000B00011310008113100084920000811310008F1
:1000C0001131000811310008113100081131000808
:1000D0001131000811310008113100084D200008CD
:1000E0001131000811310008113100080000000032
:1000F0000000000000000000000000000000000000
:0C01000000000000000000005FF808F1A3
:10010C0010B5054C237833B9044B13B10448AFF345
:10011C0000800123237010BD0C00002000000000A3
:10012C006C31000808B5034B1BB103490348AFF30E
:10013C00008008BD00000000100000206C31000899
:10014C00BFF34F8F0549064BCA6802F4E0621343B4
:10015C00CB60BFF34F8F00BFFDE700BF00ED00E0A9
:10016C000400FA052DE9F8431021244802F084F923
:10017C004FF400712248002202F084F910211F482C
:10018C0002F07AF9B8B31D4F1D4DDFF87C801D4C81
:10019C001021384602F070F901224FF480710646A6
:1001AC00284602F06FF9D8F8049002F04BFC2D228F
:1001BC00A4FB0030800C02FB00F2D8F80430A3EB57
:1001CC0009039342F9D300224FF48071284602F0C0
:1001DC0059F9D8F8049002F035FC2D22A4FB00301C
:1001EC00800C02FB00F2D8F80430A3EB0903934215
:1001FC00F9D3002ECCD1BDE8F88300BF0008014034
:10020C00000C014083DE1B43001000E02DE9F84395
:10021C004FF40051214802F02FF900283BD0204C1C
:10022C001E4FDFF884801F4D00228021204602F0F3
:10023C0029F94FF40051384602F01EF901224021F1
:10024C000646204602F01EF9D8F8049002F0FAFB9C
:10025C006E22A5FB0030800C02FB00F2D8F80430B3
:10026C00A3EB09039342F9D300224021204602F06C
:10027C0009F9D8F8049002F0E5FB6E22A5FB0030DA
:10028C00800C02FB00F2D8F80430A3EB0903934274
:10029C00F9D3002EC8D1BDE8F88300BF001001408F
:1002AC00000C014083DE1B43001000E02DE9F04FF1
:1002BC00092995B004910646079200F06681012940
:1002CC000B4600F05C81002900F0598140F6B833F0
:1002DC009E4200F2348114234FF06E0E4FF0640CEA
:1002EC005A27502546243C2032211E22CDE909EC08
:1002FC00CDE90B75CDE90D40CDE90F12CDE91133E8
:10030C001393C84DA5FB06356D096B0003EBC502B5
:10031C00A6EB4201C3EB420305910693002D00F0BE
:10032C007A81A94609AB0193039313AB0293BE4F99
:10033C00DFF8FCB2BD4E019B002453F8045B019323
:10034C004FEA550800224021384602F09BF8DBF8B2
:10035C0004A002F077FBA6FB0032920C08FB02F221
:10036C00DBF80430A3EB0A039342F9D301224021BA
:10037C00384602F087F8DBF804A002F063FBA6FB1A
:10038C000032920C05FB02F2DBF80430A3EB0A03FB
:10039C009342F9D30134A145D4D1DDE90132934222
:1003AC00CAD1059B4D46002B00F0398100249E4E8E
:1003BC00DFF87C829D4FDDF81CA00195DDE9045926
:1003CC0000224021304602F05DF8D8F804B002F06B
:1003DC0039FB0A21A7FB00239B0C01FB03F1D8F886
:1003EC000430A3EB0B038B42F9D30122402130469E
:1003FC0002F048F8D8F804B002F024FB1421A7FB53
:10040C0000239B0C01FB03F1D8F80430A3EB0B0386
:10041C008B42F9D3012D04F1010400F0828035B92F
:10042C00B4F5FA6F03D3BAF1010F00F0A180A14526
:10043C00C6D1019D002D3FD009AB039313AB0293A2
:10044C00A946794FDFF8E8B1784E01930024019B5F
:10045C0053F8045901934FEA5508002240213846BD
:10046C0002F010F8DBF804A002F0ECFAA6FB003264
:10047C00920C08FB02F2DBF80430A3EB0A03934264
:10048C00F9D301224021384601F0FCFFDBF804A02F
:10049C0002F0D8FAA6FB0032920C05FB02F2DBF854
:1004AC000430A3EB0A039342F9D30134A145D4D110
:1004BC00039B019A9342C9D1069B7BB398460024B7
:1004CC00594E5B4F594D00224021304601F0DAFF66
:1004DC00D7F8049002F0B6FA3722A5FB00139B0C58
:1004EC0002FB03F27B68A3EB09039342FAD30122CC
:1004FC004021304601F0C6FFD7F8049002F0A2FA72
:10050C006E22A5FB00139B0C02FB03F27B68A3EB92
:10051C0009039342FAD30134A045D4D115B0BDE8F8
:10052C00F08FB4F5FA6F82D3BAF1010F7FF47FAF7D
:10053C0052464FF40041304601F0A4FF77E71423F4
:10054C004FF06E084FF0640E4FF05A0C50274625B2
:10055C003C24322028211E22CDE9098ECDE90BC77F
:10056C00CDE90D54CDE90F01CDE911231393C8E664
:10057C002A464FF40041304601F084FF57E71A46F3
:10058C008021294801F07EFFA0E64FF40051294854
:10059C0001F072FF00283FF499AE234CDFF89480F1
:1005AC00DFF88C90214D00228021204601F06AFF5B
:1005BC004FF40051404601F05FFF012240210746F5
:1005CC00204601F05FFFD9F804A002F03BFA6E223E
:1005DC00A5FB00139B0C02FB03F2D9F80430A3EB30
:1005EC000A039342F9D300224021204601F04AFF2E
:1005FC00D9F804A002F026FA6E22A5FB00139B0C7E
:10060C0002FB03F2D9F80430A3EB0A039342F9D3AB
:10061C00002FC8D15AE600297FF4C8AE4CE7134628
:10062C000EE700BF1F85EB51000C014083DE1B431E
:10063C00001000E00010014000200D4A0D4BD16865
:10064C0021F08071D160D16841F08071D1601A685D
:10065C0022F001021A601A6842F001021A60586016
:10066C0000BF00BF00BF5868B0FA80F04009704767
:10067C00F0ED00E0001000E02DE9F04FDFF8DC9029
:10068C0083B0D9F80030002B3ED000231A462D4EF3
:10069C00DFF8CC802C4DDFF8CCA02C4C01932C4BEC
:1006AC001B6893423AD02B4B1B68934241D02A4B88
:1006BC001B6893422BD000224FF48071404601F00E
:1006CC00E1FE00224FF40071404601F0DBFE4FF4D6
:1006DC007A7B1021284601F0CFFEDAF804703080C6
:1006EC0002F0B0F9A4FB0030800CDAF80430DB1B0C
:1006FC008342FAD3BBF1010BEBD1019AD9F800304C
:10070C00013293420192CAD803B0BDE8F08F0122A6
:10071C004FF48041404601F0B5FECCE701224FF486
:10072C000051404601F0AEFE0A4B019A1B68934201
:10073C00BDD100224FF40051404601F0A3FE019AB6
:10074C00B5E700BF2E0000200008014083DE1B43EC
:10075C003800002080000020580100208800002074
:10076C00000C0140001000E02DE9F04F012185B094
:10077C00694801F081FE02210546674801F07CFEC4
:10078C0002210090654801F077FE202182466248E4
:10079C0001F072FE4FF400518046614801F06CFE8E
:1007AC00012104465D4801F067FE102183465B4839
:1007BC0001F062FE40218146584801F05DFE802127
:1007CC000746564801F058FE4FF4805106465348F0
:1007DC0001F052FE0190002C79D14FF0300C514CAD
:1007EC00642321460122504884F800C002F034FAF8
:1007FC00BBF1000F7FD14FF0300C6423012249492B
:10080C00494884F800C002F027FABAF1000F6FD102
:10081C004FF0300C642301224249434884F800C055
:10082C0002F01AFAB9F1000F5FD14FF0300C6423CB
:10083C0001223C493C4884F800C002F00DFAB8F1A2
:10084C00000F4FD14FF0300C64230122354936484C
:10085C0084F800C002F000FA002F41D13027642345
:10086C00012230493048277002F0F6F9002E35D1BC
:10087C003026642301222B492B48267002F0ECF918
:10088C0055BB30256423012226492748257002F0E8
:10089C00E3F9009BF3B93025642301222149224856
:1008AC00257002F0D9F9019B43B3204A64231068E8
:1008BC0003A9050CADF80C0003221B488DF80E5053
:1008CC0002F0CAF90123237005B0BDE8F08F4FF098
:1008DC00310C84E73925DFE73825D3E73726C8E71D
:1008EC003627BCE74FF0350CAEE74FF0340C9EE7E3
:1008FC004FF0330C8EE74FF0320C7EE7302564233B
:10090C00012208490848257002F0A6F9012323703A
:10091C0005B0BDE8F08F00BF000C0140000801409D
:10092C0000100140600100203C00002084310008D0
:10093C0030B591B02022002107A802F009FC002458
:10094C000225012110224FF4601306A80A910B9284
:10095C000F93CDE90144CDE90344CDE905450D954F
:10096C0001F0A4FD0F224FF4806301A82946CDE9C4
:10097C00025405940192049301F080FF11B030BD34
:10098C002DE9F04F00249BB001F0AAFBFFF7D0FF3C
:10099C00CDE90F44CDE91144AB4B224699690126B0
:1009AC0041F010019961986948F60C7100F0100043
:1009BC00079007989D69A54845F020059D619D69A4
:1009CC00A24F05F020050895089D9D6945F004058A
:1009DC009D619D6905F004050995099D9D6945F08A
:1009EC0008059D619B69022503F008030A930A9B85
:1009FC0001F048FD22464FF2F831954801F042FDD6
:100A0C004FF400530FA99348CDE910440F9301F014
:100A1C0043FC41F2B3030FA98C48CDE910440F936A
:100A2C0001F03AFC48F60C730FA98848CDE90F3653
:100A3C001194129501F030FC4022874B0FA983488A
:100A4C000F921194109301F027FC03230FA98048F7
:100A5C00CDE910440F9301F01FFC4FF2F8330FA9AE
:100A6C007B480F93CDE91064129501F015FC2246DA
:100A7C002146172001F06AFB172001F09DFB4FF473
:100A8C00E1310C22754B764D1846C3E902441C61CA
:100A9C00C3E90644C3E900515A6101F0F9FFFFF7BD
:100AAC00CBFD704C704E4021384601F0E5FCC0B9CE
:100ABC004FF48071384601F0E9FC4FF0C8086568C6
:100ACC0001F0C0FF4FF47A72A6FB00139B0C02FBE3
:100ADC0003F263685B1B9342FBD3B8F10108EED1C0
:100AEC00E1E701224FF48071584801F0CBFC5F4BD9
:100AFC000BAC0FCB07C41D0C24F8023B0F22642354
:100B0C000BA95648257002F0A7F80120FFF77EFBD1
:100B1C00DFF854810023564D504C2B706423012276
:100B2C002946204602F022F9514B1B78002BF5D0B8
:100B3C00522B00F01F814D2B00F09E80552BE9D1DC
:100B4C0000234B4D454C2B70642301222946204633
:100B5C0002F00CF9464B1B78002BF5D0482B01D03A
:100B6C00562BD7D10023424D3C4C2B7064230122D1
:100B7C002946204602F0FAF83D4B1B78002BF5D0A5
:100B8C00412B01F0DD800023394D344C2B70642354
:100B9C0001222946204602F0E9F8354B1B78002B40
:100BAC00F5D0422B01F09A800023314D2B4C2B7049
:100BBC00642301222946204602F0D8F82C4B1B78DE
:100BCC00002BF5D0432B01F057800023284D234CEC
:100BDC002B70642301222946204602F0C7F8244BCF
:100BEC001B78002BF5D0442B01F014800023204DF2
:100BFC001A4C2B70642301222946204602F0B6F8C9
:100C0C001B4B1B78002BF5D0452B00F0BF85002328
:100C1C00174D124C2B70642301222946204602F0FA
:100C2C00A5F8134B1B78002BF5D0462B01F0CE808A
:100C3C00104B43241D4601226423294607482C707F
:100C4C0002F00AF866E700BF0010024000080140FD
:100C5C00000C014000100140000021103C0000205D
:100C6C0000480040001000E083DE1B438831000880
:100C7C0060010020280000200023C24DC24C2B70C4
:100C8C00642301222946204602F070F8BD4B1B78E4
:100C9C00002BF5D0512B00F0D481412B00F0D781E3
:100CAC00422B00F0D783432B00F0B883442B00F089
:100CBC00AE83452B00F01785462B00F02885472B7B
:100CCC0000F01B85482B00F05985492B00F04C8512
:100CDC004A2B00F097854B2B00F08E85502B00F0A3
:100CEC003D86522B00F0E785532B00F09185542B59
:100CFC0000F08A85552B01F0E780562B01F0AC8073
:100D0C00572B7FF407AF1021A04801F0B5FB002250
:100D1C004FF400719E4801F0B5FB4FF4C8559C4E42
:100D2C009C4C01224FF48071304601F0ABFB67689C
:100D3C0001F088FE9622A8FB00139B0C02FB03F229
:100D4C006368DB1B9342FBD300224FF48071304667
:100D5C0001F098FB676801F075FE9622A8FB001362
:100D6C009B0C02FB03F26368DB1B9342FBD3013D3C
:100D7C00D7D1CFE60023834D834C2B706423012203
:100D8C002946204601F0F2FF7E4B1B78002BF5D054
:100D9C00412B00F0C181422B7FF4CDAE0023DFF854
:100DAC0010B2784A1370DBF80030002B00F020856D
:100DBC00794B05931B68002B00F01A85774B049335
:100DCC001B68002B00F01485754B03931B68002BDC
:100DDC0000F00E85734BDFF8DC910093724BDFF85B
:100DEC00B0A10293714B019344240020FFF70EFA3B
:100DFC00009D642301226B4963482C7001F02CFF89
:100E0C00FFF73AFCFFF7AEF91021604801F034FB14
:100E1C0001224FF40071504601F034FB41F2707422
:100E2C005C4D01224FF48071504601F02BFB6E6833
:100E3C0001F008FE2D22A8FB00139B0C02FB03F211
:100E4C006B689B1B9342FBD300224FF4807150467E
:100E5C0001F018FB6E6801F0F5FD2D22A8FB0013C4
:100E6C009B0C02FB03F26B689B1B9342FBD3013C74
:100E7C00D7D12021454801F0FFFA30B9434C20214D
:100E8C00204601F0F9FA0028F9D0029B1C6894B1B5
:100E9C000026404D6F6801F0D5FD4FF47A72A8FB27
:100EAC0000139B0C02FB03F26B68DB1B9342FBD31E
:100EBC000136B442EED1D9F80030019C03EB431358
:100ECC005B001846002201212360FFF7EFF9002296
:100EDC004FF48041504601F0D5FA01224FF4805175
:100EEC00504601F0CFFA4FF496742A4D6E6801F01B
:100EFC00A9FD4FF47A72A8FB0030800C02FB00F2C3
:100F0C006B689B1B9342FBD3013CEFD122464FF401
:100F1C008051504601F0B6FAD9F80030019D03EB30
:100F2C0043135B00A3F57A731846224621462B60C7
:100F3C00FFF7BCF92046FFF769F964230122114938
:100F4C00114801F013FF0F4B1B78532B3FF4E2AD0C
:100F5C00DBF8003053B1059B1B683BB1049B1B684D
:100F6C0023B1039B1B68002B7FF43EAF4B24009DE9
:100F7C00642301220B4904482C7001F06DFE014BD7
:100F8C001B78D8E5600100203C00002000080140DF
:100F9C00000C0140001000E0380000205801002037
:100FAC0080000020280000203400002030000020A9
:100FBC0088000020840000204FF46175524E534C81
:100FCC0000224021304601F05DFA676801F03AFDDD
:100FDC003722A8FB00139B0C02FB03F26368DB1B9C
:100FEC009342FBD301224021304601F04BFA676853
:100FFC0001F028FD6E22A8FB00139B0C02FB03F2F0
:10100C006368DB1B9342FBD3013DD9D14FF4004104
:10101C0001223D4801F036FA646801F013FD4FF4EB
:10102C007A72A8FB00139B0C02FB03F237494B6846
:10103C001B1B9342FBD300224FF40041324801F0BA
:10104C0021FA0020FFF7E2F8314B1B7876E54FF4DC
:10105C000051304801F010FA0028F5D00022802110
:10106C00294801F00FFA6E273C204FF0640C4624FF
:10107C0032211E2214235A265025CDE90F7CCDE9AE
:10108C001340CDE91512CDE91165CDE9173319934C
:10109C001D4E0DEB000318AD00931424DFF86CB05B
:1010AC004FEA570900224021304601F0EBF9DBF8FA
:1010BC0004A001F0C7FCA8FB0032920C09FB02F261
:1010CC00DBF80430A3EB0A039342F9D3012240214D
:1010DC00304601F0D7F9DBF804A001F0B3FCA8FB13
:1010EC000032920C07FB02F2DBF80430A3EB0A038C
:1010FC009342F9D3013CD5D1009B9D4200F08E82E6
:10110C0053F8047F0093C8E7000C0140001000E086
:10111C0060010020001001400023DFF830B3C04A0A
:10112C001370DBF80030002B00F06283BD4B05938D
:10113C001B68002B00F05C83BB4B04931B68002BDB
:10114C0000F05683B94B03931B68002B00F05083BF
:10115C00B74BDFF8FC920093B64BB74E0293B74BEC
:10116C00019344240120FFF751F8009D64230122D0
:10117C00AF49B3482C7001F06FFDFFF77DFA1021D9
:10118C00304601F079F94FF40071AE48002201F0BD
:10119C0079F91021304601F06FF998B3A94CDFF8BA
:1011AC00A8A21021304601F067F901224FF480719A
:1011BC000546204601F066F9DAF8047001F042FCAD
:1011CC002D22A8FB00139B0C02FB03F2DAF804306F
:1011DC00DB1B9342FAD300224FF48071204601F0BE
:1011EC0051F9DAF8047001F02DFC2D22A8FB001344
:1011FC009B0C02FB03F2DAF80430DB1B9342FAD3AC
:10120C00002DCED11021304601F036F901224FF4D9
:10121C0000718C4801F036F941F27074894DDFF899
:10122C0028A201224FF48071284601F02BF9DAF83C
:10123C00047001F007FC2D22A8FB00139B0C02FB91
:10124C0003F2DAF80430DB1B9342FAD300224FF49A
:10125C008071284601F016F9DAF8047001F0F2FBFF
:10126C002D22A8FB00139B0C02FB03F2DAF80430CE
:10127C00DB1B9342FAD3013CD3D12021304601F041
:10128C00FBF80028F9D001224FF400416D4801F021
:10129C00F9F8029B1C68A4B14FF0000A6A4D6F6804
:1012AC0001F0D0FB4FF47A72A8FB00139B0C02FBED
:1012BC0003F26B68DB1B9342FBD30AF1010A544522
:1012CC00EDD10122D9F80030019C03EB431393407C
:1012DC00114618462360FEF7E9FF0121304601F064
:1012EC00CBF800287FD101224FF40041554801F082
:1012FC00C9F801224FF40041524801F0C3F8012211
:10130C004FF400414F4801F0BDF800224FF48041EA
:10131C004C4801F0B7F801224FF48051494801F0D4
:10132C00B1F84FF49674484D6F6801F08BFB4FF495
:10133C007A72A8FB0030800C02FB00F26B68DB1B9E
:10134C009342FBD3013CEFD122464FF480513D48F0
:10135C0001F098F80122D9F80030019D03EB4313FA
:10136C009340A3F57A73184621462B60FEF79EFF37
:10137C000120FEF74BFF0221304601F07DF80028DA
:10138C003BD122464FF400412E4801F07BF8224617
:10139C004FF400412B4801F075F822464FF4004100
:1013AC00284801F06FF8642301221D49244801F0FC
:1013BC00DDFC1B4B1B78532B3FF4ACABDBF8003044
:1013CC00002B3FF4D3AD059B1B68002B3FF4CEAD37
:1013DC00049B1B68002B3FF4C9AD039B1B68002BBF
:1013EC007FF4BFAEC2E54E24009D64230122104958
:1013FC0013482C7001F030FC87E74E24009D6423C9
:10140C0001220B490E482C7001F026FCCBE7002280
:10141C004FF480410B4801F035F815E60122F7E74F
:10142C0060010020380000205801002080000020BE
:10143C00280000203400002000080140300000206B
:10144C003C000020000C0140001000E0880000204F
:10145C008400002001228021C94801F013F81423D4
:10146C003C206E274FF0640C462432211E225A2653
:10147C005025CDE9173319930DEB00039A46CDE9AE
:10148C000F7CCDE91340CDE91512CDE9116518ADEE
:10149C00BB4E00951424DFF8ECB24FEA570900223A
:1014AC004021304600F0EEFFDBF8045001F0CAFAA0
:1014BC00A8FB0032920C09FB02F2DBF804305B1B38
:1014CC009342FAD301224021304600F0DBFFDBF8D7
:1014DC00045001F0B7FAA8FB0032920C07FB02F2A1
:1014EC00DBF804305B1B9342FAD3013CD7D1009B51
:1014FC009A4502D05AF8047FCCE71D464FF4C864D5
:10150C009F4EA04F00224021304600F0BBFFD7F881
:10151C00049001F097FA0A22A8FB00139B0C02FB23
:10152C0003F27B68A3EB09039342FAD30122402117
:10153C00304600F0A7FFD7F8049001F083FA14228C
:10154C00A8FB00139B0C02FB03F27B68A3EB0903C3
:10155C009342FAD3013CD5D11427894E1424DFF8D9
:10156C0024A24FEA570900224021304600F08AFF9E
:10157C00DAF804B001F066FAA8FB0032920C09FB11
:10158C0002F2DAF80430A3EB0B039342F9D30122F5
:10159C004021304600F076FFDAF804B001F052FA40
:1015AC00A8FB0032920C07FB02F2DAF80430A3EB32
:1015BC000B039342F9D3013CD5D10FABAB4202D014
:1015CC0055F80479CAE74FF4B4756D4E6D4C002292
:1015DC004021304600F056FF676801F033FA37229D
:1015EC00A8FB00139B0C02FB03F26368DB1B93420A
:1015FC00FBD301224021304600F044FF676801F024
:10160C0021FA6E22A8FB00139B0C02FB03F2636809
:10161C00DB1B9342FBD3013DD9D115E54FF4C864D4
:10162C00574E584F00224021304600F02BFFD7F880
:10163C00049001F007FA0A22A8FB00139B0C02FB92
:10164C0003F27B68A3EB09039342FAD301224021F6
:10165C00304600F017FFD7F8049001F0F3F914228C
:10166C00A8FB00139B0C02FB03F27B68A3EB0903A2
:10167C009342FAD3013CD5D11427414E1424DFF800
:10168C0004A14FEA570900224021304600F0FAFE2F
:10169C00DAF804B001F0D6F9A8FB0032920C09FB81
:1016AC0002F2DAF80430A3EB0B039342F9D30122D4
:1016BC004021304600F0E6FEDAF804B001F0C2F941
:1016CC00A8FB0032920C07FB02F2DAF80430A3EB11
:1016DC000B039342F9D3013CD5D10FABAB4218D0DD
:1016EC0055F80479CAE701224FF48051244800F0E0
:1016FC00C9FE254B1B78FFF721BA01224FF400518C
:10170C001F4800F0BFFE204B1B78FFF717BA0022D2
:10171C00EAE74FF4B4751A4E1A4C002240213046B9
:10172C0000F0B0FE676801F08DF93722A8FB0013BA
:10173C009B0C02FB03F26368DB1B9342FBD301227D
:10174C004021304600F09EFE676801F07BF96E2266
:10175C00A8FB00139B0C02FB03F26368DB1B934298
:10176C00FBD3013DD9D16FE401224FF40041044871
:10177C0000F088FE044B1B78FFF7E0B90022BDE7B0
:10178C00000C0140001000E06001002000246423E4
:10179C0005220FA9BF480F948DF8404001F0E6FADE
:1017AC004FF47A7142F2107464209DF83D209DF83C
:1017BC003C30303AD2B201FB02F2303BDBB204FBDC
:1017CC0003219DF83E309DF83F20303BDBB200FBFF
:1017DC000313303A9DF84010D2B202EB820230393A
:1017EC0003EB4203CAB2AC4913440B60FFF70FBAC8
:1017FC00AA4B0093FFF7BABBFEF7B4FCA84B1B78BF
:10180C00FFF79CB90022B0E7FEF7AEFFFEF798FC9D
:10181C0001228021A34800F035FE6E2614234FF0E0
:10182C00640E4FF05A0C5027322028211E224625D8
:10183C003C24CDE90F6ECDE911C7CDE91501CDE9F9
:10184C001723DFF86092CDE91354199318AD0DEB03
:10185C00040B3227944C4FEA560A4021002248468A
:10186C0000F010FE6268009201F0ECF8A8FB003169
:10187C00890C0AFB01F1009A63689B1A8B42FBD31B
:10188C0040210122484600F0FDFD6268009201F003
:10189C00D9F8A8FB0031890C06FB01F1009A6368AA
:1018AC009B1A8B42FBD3013FD7D15D4500F08E8054
:1018BC005BF8046FCDE7012280217A4800F0E2FD4D
:1018CC006E2614234FF0640E4FF05A0C5027322022
:1018DC0028211E2246253C24CDE90F6ECDE911C7E7
:1018EC00CDE91501CDE91723DFF8B891CDE91354F3
:1018FC00199318AD0DEB040B32276B4C4FEA560ABB
:10190C0040210022484600F0BDFD6268009201F0C3
:10191C0099F8A8FB0031890C0AFB01F1009A636865
:10192C009B1A8B42FBD340210122484600F0AAFDB2
:10193C006268009201F086F8A8FB0031890C06FB66
:10194C0001F1009A63689B1A8B42FBD3013FD7D1FC
:10195C005D4500F0AD805BF8046FCDE71021534876
:10196C0000F08AFD01224FF400714E4800F08AFD10
:10197C004FF47A754B4E4C4C01224FF4807130462B
:10198C0000F080FD676801F05DF89622A8FB00135B
:10199C009B0C02FB03F26368DB1B9342FBD300221C
:1019AC004FF48071304600F06DFD676801F04AF825
:1019BC009622A8FB00139B0C02FB03F26368DB1B53
:1019CC009342FBD3013DD7D1FFF73EBB4FF47A6670
:1019DC00344F354C00224021384600F053FDD4F8EA
:1019EC00049001F02FF80A22A8FB00139B0C02FBB9
:1019FC0003F26368A3EB09039342FAD3012240215B
:101A0C00384600F03FFDD4F8049001F01BF8142286
:101A1C00A8FB00139B0C02FB03F26368A3EB090306
:101A2C009342FAD3013ED5D11426DFF878903227B1
:101A3C001D4C4FEA560A00224021484600F022FD78
:101A4C00D4F804B000F0FEFFA8FB0032920C0AFBA5
:101A5C0002F26368A3EB0B039342FAD301224021F9
:101A6C00484600F00FFDD4F804B000F0EBFFA8FBE3
:101A7C000032920C06FB02F26368A3EB0B03934259
:101A8C00FAD3013FD7D10FABAB423FF495AA55F82F
:101A9C000469CCE73C000020340000202800002022
:101AAC0060010020000C0140001000E00008014023
:101ABC004FF47A66BC4FBD4C00224021384600F0F2
:101ACC00E1FCD4F8049000F0BDFF0A22A8FB00133F
:101ADC009B0C02FB03F26368A3EB09039342FAD35A
:101AEC0001224021384600F0CDFCD4F8049000F0DF
:101AFC00A9FF1422A8FB00139B0C02FB03F26368E2
:101B0C00A3EB09039342FAD3013ED5D11426DFF897
:101B1C0098923227A54C4FEA560A0022402148469B
:101B2C0000F0B0FCD4F804B000F08CFFA8FB00323D
:101B3C00920C0AFB02F26368A3EB0B039342FAD3F9
:101B4C0001224021484600F09DFCD4F804B000F07E
:101B5C0079FFA8FB0032920C06FB02F26368A3EB40
:101B6C000B039342FAD3013FD7D10FABAB4202D058
:101B7C0055F80469CDE74FF461758B4E8B4C002200
:101B8C004021304600F07EFC676800F05BFF372296
:101B9C00A8FB00139B0C02FB03F26368DB1B934254
:101BAC00FBD301224021304600F06CFC676800F04A
:101BBC0049FF6E22A8FB00139B0C02FB03F2636827
:101BCC00DB1B9342FBD3013DD9D101224FF40041E1
:101BDC00754800F057FC6426744C656800F032FFC1
:101BEC004FF47A72A8FB00139B0C02FB03F26368A0
:101BFC005B1B9342FBD3013EEFD132464FF40041C5
:101C0C00694800F03FFC3046FEF700FB684B1B7840
:101C1C00FEF794BF0024642305220FA965480F9496
:101C2C008DF8404001F0A2F84FF47A7142F2107432
:101C3C0064209DF83D209DF83C30303AD2B201FB37
:101C4C0002F2303BDBB204FB03219DF83E309DF8E1
:101C5C003F20303BDBB200FB0313303A9DF84010C1
:101C6C00D2B202EB8202303903EB4203CAB25249C0
:101C7C0013440B60FEF7BABF0024642305220FA99E
:101C8C004C480F948DF8404001F070F84FF47A7185
:101C9C0042F2107464209DF83D209DF83C30303A9F
:101CAC00D2B201FB02F2303BDBB204FB03219DF804
:101CBC003E309DF83F20303BDBB200FB0313303A43
:101CCC009DF84010D2B202EB8202303903EB420392
:101CDC00CAB23A4913440B60FEF777BF0024642361
:101CEC0005220FA933480F948DF8404001F03EF8BF
:101CFC004FF47A7142F2107464209DF83D209DF8E7
:101D0C003C30303AD2B201FB02F2303BDBB204FB86
:101D1C0003219DF83E309DF83F20303BDBB200FBA9
:101D2C000313303A9DF84010D2B202EB82023039E4
:101D3C0003EB4203CAB2224913440B60FEF734BFD3
:101D4C000020204C6423206005220FA90F908DF8F1
:101D5C004000184801F00AF84FF47A7142F21074FE
:101D6C0064209DF83D209DF83C30303AD2B201FB06
:101D7C0002F2303BDBB204FB03219DF83E309DF8B0
:101D8C003F20303BDBB200FB0313303A9DF8401090
:101D9C00D2B202EB8202303903EB4203CAB20A49D7
:101DAC0013440B60FEF7EFBE000C0140001000E086
:101DBC00600100203C0000208800002080000020F2
:101DCC003800002064010020580100200024642306
:101DDC0005220FA952480F948DF8404000F0C6FF21
:101DEC004FF47A7042F2107164239DF83D209DF8F7
:101DFC003C40303AD2B200FB02F0303CE4B201FB82
:101E0C0004019DF83E008DF83D203038C0B29DF89D
:101E1C003F2003FB0013303A9DF84010D2B230390A
:101E2C0002EB8205C9B203EB45030B44DFF80891C2
:101E3C00B3F5967FC9F80030C8BF4FF496738DF890
:101E4C003C408DF83E008DF83F208DF84010C8BF07
:101E5C00C9F80030FEF7ECBE1021324800F00CFB44
:101E6C0001224FF40071304800F00CFB4FF4C855C0
:101E7C002D4E2E4C01224FF48071304600F002FBA7
:101E8C00676800F0DFFD9622A8FB00139B0C02FB99
:101E9C0003F26368DB1B9342FBD300224FF4807187
:101EAC00304600F0EFFA676800F0CCFD9622A8FBF4
:101EBC0000139B0C02FB03F26368DB1B9342FBD306
:101ECC00013DD7D1FEF726BE194B51241D46009378
:101EDC0029466423012212482C7000F0BDFE154BDC
:101EEC001F6897B10024114E756800F0ABFD4FF4DC
:101EFC007A72A8FB00139B0C02FB03F273685B1B4A
:101F0C009342FBD30134A742EED15720009C6423AB
:101F1C00207001220649024800F09EFEFEF7FABD31
:101F2C003C00002000080140000C0140001000E0C3
:101F3C0028000020580100208400002008B5FEF77E
:101F4C00FFF800BF0E4B82B09A690E4942F00102B5
:101F5C009A619A6902F001020092009ADA6942F0E1
:101F6C008052DA61DB6903F080530193019B4B686B
:101F7C0023F0E06343F000734B6002B0704700BF86
:101F8C00001002400000014070B5002402681E4B96
:101F9C0086B09A42CDE90244CDE9044401D006B0A2
:101FAC0070BD4FF480610226032503F5E433DA6932
:101FBC00164842F48022DA61DA6902F48022009237
:101FCC00009A9A6942F008029A619B69029103F0A7
:101FDC000803019302A9019B0396059500F05CF997
:101FEC004FF4006302A909480293CDE9034400F0C1
:101FFC0053F922462146272000F0A8F8272000F0AC
:10200C00DBF806B070BD00BF00480040000C01407A
:10201C00704700BFFEE700BFFEE700BFFEE700BF52
:10202C00FEE700BF704700BF704700BF704700BF9E
:10203C0000F068B8402000F02DBA00BF704700BF18
:10204C00014800F06FBF00BF3C00002030B44FF4DB
:10205C001F054FF000640E4B0E4A19680E4841F0F4
:10206C000101196059680A405A601A6822F084729A
:10207C0022F480321A601A6822F480221A605A689C
:10208C0022F4FE025A609D60846030BC704700BF31
:10209C00001002400000FFF800ED00E04FF47A73EE
:1020AC0070B50D4D0D4A29781268B3FBF1F3064655
:1020BC00B2FBF3F000F08CF808B90F2E01D9012017
:1020CC0070BD0446024631464FF0FF3000F03EF83A
:1020DC006E60204670BD00BF040000200000002090
:1020EC00074A08B51368032043F01003136000F08F
:1020FC001BF80020FFF7D2FFFFF724FF002008BDDC
:10210C0000200240034A044B11681B780B441360F7
:10211C00704700BF6801002004000020014B1868C4
:10212C00704700BF680100204FF6FF01064A00020D
:10213C00D36800F4E0600B4043F0BF6343F400331A
:10214C000343D360704700BF00ED00E0184B30B480
:10215C00DB68C3F30223C3F10705042D03F1040468
:10216C0028BF0425062C19D94FF0FF34033B9C40A3
:10217C0022EA04044FF0FF32AA4021EA020101FADC
:10218C0003F2224312010028D2B20ADB00F16040B4
:10219C0000F5614080F8002330BC704700242346D2
:1021AC00E8E7044B00F00F0003441A7630BC70478C
:1021BC0000ED00E0FCEC00E0012300F01F01034AFD
:1021CC0040098B4042F82030704700BF00E100E02E
:1021DC000138B0F1807F0DD230B4F02500220721F8
:1021EC00054B064C586084F82350104630BC9A605E
:1021FC00196070470120704710E000E000ED00E02E
:10220C0038B590F82130022B04D0042201248263CB
:10221C00204638BD03681D491A688B4222F00E0215
:10222C001A601A6822F001021A6021D0184A9342EF
:10223C001CD0143293421DD0143293421DD0143250
:10224C0093421DD0143293420CBF4FF480134FF0C5
:10225C008073012100240F4D426B6B6080F82110BC
:10226C0080F820407AB19047204638BD1023F0E723
:10227C000123EEE74FF48073EBE74FF48053E8E76C
:10228C004FF48033E5E71446C2E700BF0800024074
:10229C001C000240000002402DE9F04F4FF00008F6
:1022AC0083B04446DFF8C0C1694EDFF8C0E102E0FC
:1022BC000134102C78D001230A68A3401A409342B1
:1022CC00F6D14D68122D00F09C807ED8022D00F0C6
:1022DC00948074D9032D00F08D80112D02D1CB6820
:1022EC0003F10408FF2A62D882460368A5004FF068
:1022FC000F0909FA05FB23EA0B0308FA05F52B4332
:10230C00CAF80030D1F804A01AF0805FD0D0514F39
:10231C0024F00305BB6905F1804543F00103BB6163
:10232C00BB6905F5803503F00103019304F0030B41
:10233C00019B4FEA8B0BAB6809FA0BF9604523EA5A
:10234C0009030FD0704560D0434FB84278D0434F4B
:10235C00B8420CBF4FF003094FF0040909FA0BFB0C
:10236C0043EA0B03AB6033681AF4803F14BF13438A
:10237C009343336073681AF4003F14BF13439343C1
:10238C007360B3681AF4801F14BF13439343B36094
:10239C00F3681AF4001F04F1010414BF1A4323EA72
:1023AC000202102CF26086D103B0BDE8F08F04F16C
:1023BC008045083D4368AD0000F1040A97E7A5B1DC
:1023CC00012D8FD1D1F80C808CE7254FBD420CD05C
:1023DC0029D9244FBD4208D007F58037BD4204D01F
:1023EC00DFF88C904D457FF47DAF8D68A5B94FF02B
:1023FC00040877E74FF0000874E7CB6803F108088E
:10240C0070E7CB6803F10C086CE74FF0010909FA8F
:10241C000BFB43EA0B03A5E7012D0CBF03614361E2
:10242C004FF008085EE7DFF84C904D45DDD009F51C
:10243C0080394D457FF456AF8D68002DD7D0EBE732
:10244C004FF0020909FA0BFB43EA0B038AE700BFC2
:10245C000004014000100240001001400014014033
:10246C00000021100000311000080140000C014058
:10247C0000002210000011108368194214BF0120C3
:10248C000020704702B9090401617047C3685940C4
:10249C00C1607047044A5169014200D1704708B5C8
:1024AC005061FFF74BFD08BD000401402DE9F041E0
:1024BC00036882B0DD07044630D5AB494A6802F0A8
:1024CC000C02042A00F0DA804A6802F00C02082A96
:1024DC0000F0D0806368B3F5803F00F00F81002BD3
:1024EC0000F02781B3F5A02F00F0B5819E4B1A6840
:1024FC0022F480321A601A6822F480221A60FFF7E4
:10250C000DFE994D064605E0FFF708FE801B64287A
:10251C0000F20B812B689A03F6D523689F0728D508
:10252C00914A516811F00C0F00F0B680516801F01F
:10253C000C01082900F0AC802369002B00F04181CC
:10254C0001228A4B884D1A60FFF7E8FD064605E02C
:10255C00FFF7E4FD801B022800F2E7802B68980748
:10256C00F6D52B68626923F0F80343EAC2032B60AB
:10257C0023681A0722D5A369002B00F0988001224A
:10258C007B4B794D1A60FFF7C9FD064605E0FFF756
:10259C00C5FD801B022800F2C8806B6A9B07F6D52C
:1025AC00744B754A1B68A2FB03235B0A019300BFA3
:1025BC00019B5A1E0192002BF9D123685D0739D576
:1025CC00694BDA69D00040F1828000256B4B1A68A8
:1025DC00D10540F19980E368012B0FD0002B00F05E
:1025EC00D180052B604B1A6A00F0FC8022F00102AE
:1025FC001A621A6A22F004021A6204E05A4A136A36
:10260C0043F001031362FFF789FD574E804641F2F8
:10261C00883706E0FFF782FDA0EB0800B84200F215
:10262C008480336A9B07F5D525B14F4AD36923F0D3
:10263C008053D361E269CAB14B4D696801F00C015A
:10264C00082930D0022A4FF000014D4A00F0D28008
:10265C001160FFF763FD2C46054604E0FFF75EFDB5
:10266C00401B022861D823689B01F7D4002002B0DC
:10267C00BDE8F0814A68D0037FF52CAF3A4A126866
:10268C0091037FF54BAF6268002A7FF447AF0AE0F5
:10269C005268D6033FF550AF334A1268950721D5DF
:1026AC002269012A1ED0012002B0BDE8F081304A17
:1026BC002D4D1360FFF732FD064604E0FFF72EFDAB
:1026CC00801B022831D86B6A9F07F7D475E7DA694B
:1026DC00012542F08052DA61DB6903F080530093EC
:1026EC00009B73E7204960690A6822F0F80242EA0D
:1026FC00C0020A601A077FF561AF3CE71A4A1368FB
:10270C0043F480331360FAE61A681E4642F4807272
:10271C001A60FFF703FD07463368DA053FF55BAF38
:10272C00FFF7FCFCC01B6428F6D9032002B0BDE8FF
:10273C00F08103F1804303F504331A681D4622F43B
:10274C0080321A601A6822F480221A60FFF7E6FCC5
:10275C00064604E0FFF7E2FC801B6428E5D82B68F2
:10276C009B03F7D4D9E600BF0010024000004242A0
:10277C008004424200000020D34D621000700040E3
:10278C006000424203F1804303F504331A6A1E468B
:10279C0022F001021A621A6A41F2883822F004020D
:1027AC001A62FFF7BBFC074604E0FFF7B7FCC01B3F
:1027BC004045BAD8336A9807F7D4002D3FF43AAFA6
:1027CC0033E72B4A2B4D1360FFF7A8FC064604E0B9
:1027DC00FFF7A4FC801B0228A7D82B689907F7D415
:1027EC002368C6E642F004021A621A6A42F0010239
:1027FC001A6208E71160FFF791FC064604E0FFF748
:10280C008DFC801B022890D82B689901F7D4226A82
:10281C00B2F5803F05D16B68A16823F400330B43FC
:10282C006B600125134B606A5968024321F47411E3
:10283C0011480A435A6005601C46FFF76FFC0546B9
:10284C0005E0FFF76BFC401B02283FF66EAF2368D8
:10285C009A01F6D50AE703F18043A3F53C331A68D5
:10286C0042F480221A601A6842F480321A6046E6FA
:10287C000000424200100240600042426A4A136863
:10288C0003F007038B420BD2136823F007030B43AF
:10289C001360136803F007038B4201D001207047CB
:1028AC002DE9F041036886B09D0714D55C0704D56B
:1028BC005E4C626842F4E06262601A0704D55B4CBD
:1028CC00626842F460526260584C8568626822F01B
:1028DC00F0022A436260DB0704460E4625D54268A7
:1028EC00524B012A1B6800F09980022A00F092805A
:1028FC0098072AD54D4D41F288386B6823F00303B5
:10290C0013436B60FFF70AFC63680746012B64D026
:10291C00022B06D16CE0FFF701FCC01B404500F216
:10292C0081806B6813F00C0FF5D13F4A136803F0EC
:10293C000703B3420DD9136823F007033343136025
:10294C00136803F00703B34203D0012006B0BDE8BF
:10295C00F0812368590706D53449E0684A6822F4A7
:10296C00E06202434A601A0707D5304A216953686E
:10297C0023F4605343EAC103536040F201222C4B11
:10298C0006ACADF804200FCB04E90F0027494A68C8
:10299C0002F00C03082B10D0264B244A2648526810
:1029AC002649C2F30312825C0020D3400B60FFF770
:1029BC0075FB002006B0BDE8F081C2F383432344CD
:1029CC0013F8100CD30319D41D4B03FB00F3E4E7ED
:1029DC00FFF7A4FBC01B404524D86B6803F00C0325
:1029EC00042BF5D1A1E7FFF799FBC01B404519D883
:1029FC006B6803F00C03082BF5D196E74A680D4B76
:102A0C00C2F3404203FB00F3224412F8142CB3FB34
:102A1C00F2F3C2E79D013FF56DAF96E79F033FF5DB
:102A2C0069AF92E7032091E70020024000100240BA
:102A3C00B031000800127A00983100080000002024
:102A4C0000093D00014B1868704700BF00000020D2
:102A5C00044B05495B68054AC3F30223CB5C106841
:102A6C00D840704700100240A83100080000002038
:102A7C00044B05495B68054AC3F3C223CB5C106861
:102A8C00D840704700100240A83100080000002018
:102A9C00002800F09C802DE9F84390F8393004466A
:102AAC0003F0FF02002B00F08D802422236884F8B1
:102ABC003920DA68E06822F40052DA601969A268F9
:102ACC0021F4405101431961D968D4E9045021F42F
:102ADC00B0512A4321F00C0102430A43DA605A69CF
:102AEC00A0695B4922F4407202438B425A6170D058
:102AFC00FFF7AEFF636800EB800000EB80009B00EB
:102B0C00B0FBF3F3534F4FF06408A7FB03235B09AF
:102B1C001D01FFF79DFF666800EB800000EB800055
:102B2C00B600B0FBF6F6FFF793FF626800EB80008F
:102B3C00930000EB8000B0FBF3F3A7FB03235B09CE
:102B4C0008FB13631B013233A7FB03235B0903F060
:102B5C00F006FFF77DFF626800EB800000EB800061
:102B6C009300B0FBF3F9FFF773FF626800EB800092
:102B7C00930000EB8000B0FBF3F3A7FB03235B098E
:102B8C0008FB13931B013233A7FB0323C3F343133B
:102B9C0033432B4420210025226828469360136977
:102BAC0023F490431361536923F02A035361D368D0
:102BBC0043F40053D360E56384F8391084F83A1079
:102BCC00BDE8F88380F83820FFF7DEF96DE70120C7
:102BDC007047FFF74DFF636800EB800000EB80004F
:102BEC009B00B0FBF3F31B4F4FF06408A7FB0323D0
:102BFC005B091D01FFF73CFF666800EB800000EBF2
:102C0C008000B600B0FBF6F6FFF732FF626800EB0F
:102C1C008000930000EB8000B0FBF3F3A7FB0323D1
:102C2C005B0908FB13631B013233A7FB03235B090E
:102C3C0003F0F006FFF71CFF626800EB80009300C6
:102C4C0000EB8000B0FBF3F9FFF712FF8DE700BF3C
:102C5C00003801401F85EB51F0B5044690F839005F
:102C6C0083B020282DD10E4600292DD001925AB3C5
:102C7C001F4694F83830012B23D00020012121234A
:102C8C00E06384F8381084F83930FFF747FA0546CA
:102C9C00019AA284E2842268E38C9BB2002B39D087
:102CAC00E08CA168013880B2B1F5805FE08419D066
:102CBC00781C3BD110680106FCD533780136536083
:102CCC00EAE7022003B0F0BD012003B0F0BD1368A9
:102CDC001B060CD4002F33D0FFF720FA401B874281
:102CEC0022682DD3781CF2D110680106FCD53388EC
:102CFC002169C3F308035360002934D10236CBE7B2
:102D0C0013685B060BD4DFB1FFF708FA401B874250
:102D1C00226815D3781CF3D113685906FCD52023EF
:102D2C00002084F8393084F83800CBE713681B0690
:102D3C00C3D42FB1FFF7F2F9401B87422268B7D2F8
:102D4C00202100250320D36823F4D073D36053696A
:102D5C0023F00103536184F8391084F8385084F857
:102D6C003A1003B0F0BD013696E700BF2DE9F041F3
:102D7C00054690F83A0082B0202833D10F4600293E
:102D8C0034D00192002A31D0984695F83830012B76
:102D9C0028D0002001212223E86385F8381085F81B
:102DAC003A30FFF7BBF90646019AAA85EA85E88D09
:102DBC0080B2002861D0EA8DAB68013A92B2B3F5CB
:102DCC00805FEA8521D0B8F1FF3F2C682CD12268B6
:102DDC009206FCD52B697A1C002B43D163683B709F
:102DEC001746E4E7022002B0BDE8F081012002B0F2
:102DFC00BDE8F0810B6898060ED4B8F1000F43D0F3
:102E0C00FFF78CF9801B80453DD3B8F1FF3F296853
:102E1C00F0D10A689406FCD52B694BBB4B68C3F305
:102E2C00080327F8023BC2E723689B06D2D4B8F10B
:102E3C00000F05D0FFF772F9801B8045C3D22C68B8
:102E4C0020220021E368032023F4D073E36063693C
:102E5C0023F00103636185F8392085F8381085F873
:102E6C003A20C0E7636803F07F033B7017469EE788
:102E7C004B68DBB227F8013B99E7202385F8380033
:102E8C0085F83A30AFE7296820220024CB6803206C
:102E9C0023F4D073CB604B6923F001034B6185F8AD
:102EAC00392085F8384085F83A209CE7704700BFF8
:102EBC00704700BF10B584680169B4F5805F836A00
:102ECC00026820D05C1C52688462C9B91A70C38D28
:102EDC00013B9BB2C3858BB920240268D16821F0D9
:102EEC002001D160D16821F48071D160516921F049
:102EFC000101516180F83A40FFF7DAFF002010BD64
:102F0C0002F07F02E2E7526829B9C2F3080223F803
:102F1C00022B8362DBE7D2B223F8012B8362D6E764
:102F2C00704700BF036870B51A6804461607DD6861
:102F3C0059694AD011F0010150D0D60705D5E805E2
:102F4C0003D5E06B40F00100E063560702F002008D
:102F5C0076D561B1E16B02F0080641F00201E16344
:102F6C00002872D11EB1E16B41F00801E163E16B05
:102F7C00002932D0960601D5A80674D45D69E16BA0
:102F8C00090702D415F040057AD02021DA6822F422
:102F9C009072DA605A6922F001025A6184F83A1090
:102FAC005A6952065BD55A69616B22F040025A612C
:102FBC00002954D03B4B08464B63FFF721F960B115
:102FCC00606BBDE87040436B1847960609D5A9069F
:102FDC0007D590F83A30222B4ED070BD15F4907F67
:102FEC00ABD116060ED45106F7D56A06F5D52021BD
:102FFC00DA68204622F04002DA6084F83910FFF7D4
:10300C0055FF70BD2806EED594F83920212AE4D15D
:10301C00A168226AB1F5805F37D0511C2162127809
:10302C005A60E28C013A92B2E284002AD5D1DA6875
:10303C0022F08002DA60DA6842F04002DA6070BD99
:10304C0040B1002993D002F00806E16B41F0040175
:10305C00E16387E710078AD5002984D187E72046EA
:10306C00FFF75EFF70BD94F83A20222A86D12046E5
:10307C00FFF720FF236881E7BDE87040FFF71ABF18
:10308C002046FFF74DFFE56370BD11882069C1F341
:10309C000801596010B902322262C2E70132226281
:1030AC00BFE700BFB5300008002208B5436ADA85D7
:1030BC001846DA84FFF734FF08BD00BF002103E097
:1030CC000B4B5B58435004310A480B4B42189A4245
:1030DC00F6D30A4A02E0002342F8043B084B9A421A
:1030EC00F9D3FEF7B3FF00F00FF8FDF749FC70477A
:1030FC00C8310008000000200C0000200C0000204B
:10310C006C010020FEE7000070B500250C4E0D4C44
:10311C00A41BA410A54209D100F022F800250A4EE8
:10312C000A4CA41BA410A54205D170BD56F825303D
:10313C0098470135EEE756F8253098470135F2E708
:10314C00C0310008C0310008C0310008C43100088B
:10315C0003460244934200D1704703F8011BF9E780
:10316C00F8B500BFF8BC08BC9E467047F8B500BF68
:08317C00F8BC08BC9E46704738
:103184005F3130005072696E745F416E645F4170EC
:10319400706C7900000000000000000001020304CC
:1031A40006070809000000000102030402030405E5
:0C31B400060708090A0B0C0D0E0F101086
:0431C00031010008D1
:0431C4000D010008F1
:0C31C80000A24A040100000010000000FA
:04000005080030C9F6
:00000001FF
